{
  "_format": "hh-sol-artifact-1",
  "contractName": "RecycleChain",
  "sourceName": "contracts/RecycleChain.sol",
  "abi": [
    {
      "inputs": [],
      "stateMutability": "nonpayable",
      "type": "constructor"
    },
    {
      "anonymous": false,
      "inputs": [
        {
          "indexed": false,
          "internalType": "address",
          "name": "manufacturer",
          "type": "address"
        },
        {
          "indexed": false,
          "internalType": "string",
          "name": "name",
          "type": "string"
        },
        {
          "indexed": false,
          "internalType": "string",
          "name": "location",
          "type": "string"
        },
        {
          "indexed": false,
          "internalType": "string",
          "name": "contact",
          "type": "string"
        }
      ],
      "name": "ManufacturerRegistered",
      "type": "event"
    },
    {
      "anonymous": false,
      "inputs": [
        {
          "indexed": false,
          "internalType": "uint256",
          "name": "productId",
          "type": "uint256"
        },
        {
          "indexed": false,
          "internalType": "string",
          "name": "name",
          "type": "string"
        },
        {
          "indexed": false,
          "internalType": "address",
          "name": "manufacturer",
          "type": "address"
        }
      ],
      "name": "ProductCreated",
      "type": "event"
    },
    {
      "anonymous": false,
      "inputs": [
        {
          "indexed": false,
          "internalType": "string[]",
          "name": "itemIds",
          "type": "string[]"
        },
        {
          "indexed": false,
          "internalType": "uint256",
          "name": "productId",
          "type": "uint256"
        }
      ],
      "name": "ProductItemsAdded",
      "type": "event"
    },
    {
      "anonymous": false,
      "inputs": [
        {
          "indexed": false,
          "internalType": "string[]",
          "name": "itemIds",
          "type": "string[]"
        },
        {
          "indexed": false,
          "internalType": "enum RecycleChain.ProductStatus",
          "name": "status",
          "type": "uint8"
        }
      ],
      "name": "ProductItemsStatusChanged",
      "type": "event"
    },
    {
      "anonymous": false,
      "inputs": [
        {
          "indexed": false,
          "internalType": "uint256",
          "name": "productId",
          "type": "uint256"
        },
        {
          "indexed": false,
          "internalType": "string",
          "name": "name",
          "type": "string"
        },
        {
          "indexed": false,
          "internalType": "uint256",
          "name": "weight",
          "type": "uint256"
        }
      ],
      "name": "ToxicItemCreated",
      "type": "event"
    },
    {
      "inputs": [
        {
          "internalType": "string",
          "name": "_name",
          "type": "string"
        },
        {
          "internalType": "string[]",
          "name": "toxicNames",
          "type": "string[]"
        },
        {
          "internalType": "uint256[]",
          "name": "toxicWeights",
          "type": "uint256[]"
        }
      ],
      "name": "addProduct",
      "outputs": [],
      "stateMutability": "nonpayable",
      "type": "function"
    },
    {
      "inputs": [
        {
          "internalType": "uint256",
          "name": "_productId",
          "type": "uint256"
        },
        {
          "internalType": "uint256",
          "name": "_quantity",
          "type": "uint256"
        }
      ],
      "name": "addProductItems",
      "outputs": [],
      "stateMutability": "nonpayable",
      "type": "function"
    },
    {
      "inputs": [
        {
          "internalType": "address",
          "name": "",
          "type": "address"
        },
        {
          "internalType": "uint256",
          "name": "",
          "type": "uint256"
        }
      ],
      "name": "inventory",
      "outputs": [
        {
          "internalType": "string",
          "name": "",
          "type": "string"
        }
      ],
      "stateMutability": "view",
      "type": "function"
    },
    {
      "inputs": [
        {
          "internalType": "address",
          "name": "",
          "type": "address"
        }
      ],
      "name": "manufacturers",
      "outputs": [
        {
          "internalType": "string",
          "name": "name",
          "type": "string"
        },
        {
          "internalType": "string",
          "name": "location",
          "type": "string"
        },
        {
          "internalType": "string",
          "name": "contact",
          "type": "string"
        }
      ],
      "stateMutability": "view",
      "type": "function"
    },
    {
      "inputs": [],
      "name": "owner",
      "outputs": [
        {
          "internalType": "address payable",
          "name": "",
          "type": "address"
        }
      ],
      "stateMutability": "view",
      "type": "function"
    },
    {
      "inputs": [],
      "name": "productCounter",
      "outputs": [
        {
          "internalType": "uint256",
          "name": "",
          "type": "uint256"
        }
      ],
      "stateMutability": "view",
      "type": "function"
    },
    {
      "inputs": [
        {
          "internalType": "string",
          "name": "",
          "type": "string"
        }
      ],
      "name": "productItems",
      "outputs": [
        {
          "internalType": "string",
          "name": "id",
          "type": "string"
        },
        {
          "internalType": "uint256",
          "name": "productId",
          "type": "uint256"
        },
        {
          "internalType": "enum RecycleChain.ProductStatus",
          "name": "status",
          "type": "uint8"
        }
      ],
      "stateMutability": "view",
      "type": "function"
    },
    {
      "inputs": [
        {
          "internalType": "uint256",
          "name": "",
          "type": "uint256"
        }
      ],
      "name": "products",
      "outputs": [
        {
          "internalType": "uint256",
          "name": "id",
          "type": "uint256"
        },
        {
          "internalType": "string",
          "name": "name",
          "type": "string"
        },
        {
          "internalType": "uint256",
          "name": "quantity",
          "type": "uint256"
        },
        {
          "internalType": "address",
          "name": "manufacturer",
          "type": "address"
        }
      ],
      "stateMutability": "view",
      "type": "function"
    },
    {
      "inputs": [
        {
          "internalType": "string[]",
          "name": "itemIds",
          "type": "string[]"
        }
      ],
      "name": "recycleProductItems",
      "outputs": [],
      "stateMutability": "nonpayable",
      "type": "function"
    },
    {
      "inputs": [
        {
          "internalType": "string",
          "name": "_name",
          "type": "string"
        },
        {
          "internalType": "string",
          "name": "_location",
          "type": "string"
        },
        {
          "internalType": "string",
          "name": "_contact",
          "type": "string"
        }
      ],
      "name": "registerManufacturer",
      "outputs": [],
      "stateMutability": "nonpayable",
      "type": "function"
    },
    {
      "inputs": [
        {
          "internalType": "string[]",
          "name": "itemIds",
          "type": "string[]"
        }
      ],
      "name": "returnProductItems",
      "outputs": [],
      "stateMutability": "nonpayable",
      "type": "function"
    },
    {
      "inputs": [
        {
          "internalType": "string[]",
          "name": "itemIds",
          "type": "string[]"
        }
      ],
      "name": "sellProductItems",
      "outputs": [],
      "stateMutability": "nonpayable",
      "type": "function"
    }
  ],
  "bytecode": "0x608060405234801561001057600080fd5b506000808190555033600160006101000a81548173ffffffffffffffffffffffffffffffffffffffff021916908373ffffffffffffffffffffffffffffffffffffffff160217905550612ee6806100686000396000f3fe608060405234801561001057600080fd5b50600436106100b45760003560e01c806368f222fd1161007157806368f222fd146101635780636b5eb09c146101935780637acc0b20146101c55780638da5cb5b146101f8578063edb4a1e414610216578063f923803714610232576100b4565b806304e13137146100b95780630ac1c59b146100d55780631d0fc9db146100f15780631f16653b1461010d5780633ca278a81461012b57806348788df914610147575b600080fd5b6100d360048036038101906100ce9190611915565b610264565b005b6100ef60048036038101906100ea9190611b81565b610614565b005b61010b60048036038101906101069190611bca565b6108cd565b005b610115610a89565b6040516101229190611c80565b60405180910390f35b61014560048036038101906101409190611b81565b610a8f565b005b610161600480360381019061015c9190611b81565b610cde565b005b61017d60048036038101906101789190611cf9565b610f2c565b60405161018a9190611db8565b60405180910390f35b6101ad60048036038101906101a89190611dda565b610fe5565b6040516101bc93929190611e07565b60405180910390f35b6101df60048036038101906101da9190611e53565b6111a7565b6040516101ef9493929190611e8f565b60405180910390f35b61020061127f565b60405161020d9190611efc565b60405180910390f35b610230600480360381019061022b9190611fda565b6112a5565b005b61024c60048036038101906102479190612081565b6115d5565b60405161025b93929190612141565b60405180910390f35b600a8111156102a8576040517f08c379a000000000000000000000000000000000000000000000000000000000815260040161029f906121f1565b60405180910390fd5b6002600083815260200190815260200160002060030160009054906101000a900473ffffffffffffffffffffffffffffffffffffffff1673ffffffffffffffffffffffffffffffffffffffff163373ffffffffffffffffffffffffffffffffffffffff161461034c576040517f08c379a000000000000000000000000000000000000000000000000000000000815260040161034390612283565b60405180910390fd5b816002600084815260200190815260200160002060000154146103a4576040517f08c379a000000000000000000000000000000000000000000000000000000000815260040161039b906122ef565b60405180910390fd5b60008167ffffffffffffffff8111156103c0576103bf61196b565b5b6040519080825280602002602001820160405280156103f357816020015b60608152602001906001900390816103de5790505b50905060005b828110156105a857600061040c856116aa565b610442600184600260008a815260200190815260200160002060020154610433919061233e565b61043d919061233e565b6116aa565b6040516020016104539291906123fa565b60405160208183030381529060405290506000604051806060016040528083815260200187815260200160006003811115610491576104906120ca565b5b8152509050806003836040516104a79190612429565b908152602001604051809103902060008201518160000190816104ca919061264c565b506020820151816001015560408201518160020160006101000a81548160ff02191690836003811115610500576104ff6120ca565b5b0217905550905050600460003373ffffffffffffffffffffffffffffffffffffffff1673ffffffffffffffffffffffffffffffffffffffff16815260200190815260200160002082908060018154018082558091505060019003906000526020600020016000909190919091509081610579919061264c565b508184848151811061058e5761058d61271e565b5b6020026020010181905250505080806001019150506103f9565b50816002600085815260200190815260200160002060020160008282546105cf919061233e565b925050819055507f83e3b6fdf797f14fb15b27293b759b0b9145a24a3260a276567713e273c578778184604051610607929190612859565b60405180910390a1505050565b60005b815181101561088f5760008282815181106106355761063461271e565b5b6020026020010151905060006003826040516106519190612429565b908152602001604051809103902060010154905060006003836040516106779190612429565b908152602001604051809103902060010154036106c9576040517f08c379a00000000000000000000000000000000000000000000000000000000081526004016106c0906128d5565b60405180910390fd5b6002600082815260200190815260200160002060030160009054906101000a900473ffffffffffffffffffffffffffffffffffffffff1673ffffffffffffffffffffffffffffffffffffffff163373ffffffffffffffffffffffffffffffffffffffff161461076d576040517f08c379a000000000000000000000000000000000000000000000000000000000815260040161076490612967565b60405180910390fd5b60006003811115610781576107806120ca565b5b60038585815181106107965761079561271e565b5b60200260200101516040516107ab9190612429565b908152602001604051809103902060020160009054906101000a900460ff1660038111156107dc576107db6120ca565b5b1461081c576040517f08c379a0000000000000000000000000000000000000000000000000000000008152600401610813906129d3565b60405180910390fd5b600160038585815181106108335761083261271e565b5b60200260200101516040516108489190612429565b908152602001604051809103902060020160006101000a81548160ff0219169083600381111561087b5761087a6120ca565b5b021790555050508080600101915050610617565b507fd9a749387c94794c130d3387d15255e951f4629ee4c68c2ee584ac608730e1778160016040516108c29291906129f3565b60405180910390a150565b6000835111610911576040517f08c379a000000000000000000000000000000000000000000000000000000000815260040161090890612a95565b60405180910390fd5b6000600560003373ffffffffffffffffffffffffffffffffffffffff1673ffffffffffffffffffffffffffffffffffffffff16815260200190815260200160002060000180546109609061246f565b9050146109a2576040517f08c379a000000000000000000000000000000000000000000000000000000000815260040161099990612b01565b60405180910390fd5b6000604051806060016040528085815260200184815260200183815250905080600560003373ffffffffffffffffffffffffffffffffffffffff1673ffffffffffffffffffffffffffffffffffffffff1681526020019081526020016000206000820151816000019081610a16919061264c565b506020820151816001019081610a2c919061264c565b506040820151816002019081610a42919061264c565b509050507f57b346b79fe14f8142d096bf73f762b9d4ef542e0011250f22e5499155b54dac33858585604051610a7b9493929190612b21565b60405180910390a150505050565b60005481565b60005b8151811015610ca05760006003838381518110610ab257610ab161271e565b5b6020026020010151604051610ac79190612429565b908152602001604051809103902060010154905060016003811115610aef57610aee6120ca565b5b6003848481518110610b0457610b0361271e565b5b6020026020010151604051610b199190612429565b908152602001604051809103902060020160009054906101000a900460ff166003811115610b4a57610b496120ca565b5b14610b8a576040517f08c379a0000000000000000000000000000000000000000000000000000000008152600401610b8190612bc7565b60405180910390fd5b6002600082815260200190815260200160002060030160009054906101000a900473ffffffffffffffffffffffffffffffffffffffff1673ffffffffffffffffffffffffffffffffffffffff163373ffffffffffffffffffffffffffffffffffffffff1614610c2e576040517f08c379a0000000000000000000000000000000000000000000000000000000008152600401610c2590612967565b60405180910390fd5b60026003848481518110610c4557610c4461271e565b5b6020026020010151604051610c5a9190612429565b908152602001604051809103902060020160006101000a81548160ff02191690836003811115610c8d57610c8c6120ca565b5b0217905550508080600101915050610a92565b507fd9a749387c94794c130d3387d15255e951f4629ee4c68c2ee584ac608730e177816002604051610cd39291906129f3565b60405180910390a150565b60005b8151811015610eee5760006003838381518110610d0157610d0061271e565b5b6020026020010151604051610d169190612429565b908152602001604051809103902060010154905060026003811115610d3e57610d3d6120ca565b5b6003848481518110610d5357610d5261271e565b5b6020026020010151604051610d689190612429565b908152602001604051809103902060020160009054906101000a900460ff166003811115610d9957610d986120ca565b5b14610dd9576040517f08c379a0000000000000000000000000000000000000000000000000000000008152600401610dd090612c33565b60405180910390fd5b6002600082815260200190815260200160002060030160009054906101000a900473ffffffffffffffffffffffffffffffffffffffff1673ffffffffffffffffffffffffffffffffffffffff163373ffffffffffffffffffffffffffffffffffffffff1614610e7d576040517f08c379a0000000000000000000000000000000000000000000000000000000008152600401610e7490612967565b60405180910390fd5b600380848481518110610e9357610e9261271e565b5b6020026020010151604051610ea89190612429565b908152602001604051809103902060020160006101000a81548160ff02191690836003811115610edb57610eda6120ca565b5b0217905550508080600101915050610ce1565b507fd9a749387c94794c130d3387d15255e951f4629ee4c68c2ee584ac608730e177816003604051610f219291906129f3565b60405180910390a150565b60046020528160005260406000208181548110610f4857600080fd5b90600052602060002001600091509150508054610f649061246f565b80601f0160208091040260200160405190810160405280929190818152602001828054610f909061246f565b8015610fdd5780601f10610fb257610100808354040283529160200191610fdd565b820191906000526020600020905b815481529060010190602001808311610fc057829003601f168201915b505050505081565b60056020528060005260406000206000915090508060000180546110089061246f565b80601f01602080910402602001604051908101604052809291908181526020018280546110349061246f565b80156110815780601f1061105657610100808354040283529160200191611081565b820191906000526020600020905b81548152906001019060200180831161106457829003601f168201915b5050505050908060010180546110969061246f565b80601f01602080910402602001604051908101604052809291908181526020018280546110c29061246f565b801561110f5780601f106110e45761010080835404028352916020019161110f565b820191906000526020600020905b8154815290600101906020018083116110f257829003601f168201915b5050505050908060020180546111249061246f565b80601f01602080910402602001604051908101604052809291908181526020018280546111509061246f565b801561119d5780601f106111725761010080835404028352916020019161119d565b820191906000526020600020905b81548152906001019060200180831161118057829003601f168201915b5050505050905083565b60026020528060005260406000206000915090508060000154908060010180546111d09061246f565b80601f01602080910402602001604051908101604052809291908181526020018280546111fc9061246f565b80156112495780601f1061121e57610100808354040283529160200191611249565b820191906000526020600020905b81548152906001019060200180831161122c57829003601f168201915b5050505050908060020154908060030160009054906101000a900473ffffffffffffffffffffffffffffffffffffffff16905084565b600160009054906101000a900473ffffffffffffffffffffffffffffffffffffffff1681565b60008351116112e9576040517f08c379a00000000000000000000000000000000000000000000000000000000081526004016112e090612c9f565b60405180910390fd5b805182511461132d576040517f08c379a000000000000000000000000000000000000000000000000000000000815260040161132490612d31565b60405180910390fd5b6000600560003373ffffffffffffffffffffffffffffffffffffffff1673ffffffffffffffffffffffffffffffffffffffff168152602001908152602001600020600001805461137c9061246f565b9050116113be576040517f08c379a00000000000000000000000000000000000000000000000000000000081526004016113b590612d9d565b60405180910390fd5b6000808154809291906113d090612dbd565b919050555060008054905060006002600083815260200190815260200160002090508181600001819055508481600101908161140c919061264c565b5060008160020181905550338160030160006101000a81548173ffffffffffffffffffffffffffffffffffffffff021916908373ffffffffffffffffffffffffffffffffffffffff1602179055507faf6ffb6277511513e7d579327cc1fc57f0266df2fb11a60b13487b8c9cd2c38882863360405161148d93929190612e05565b60405180910390a160005b84518110156115cd57600060405180604001604052808784815181106114c1576114c061271e565b5b602002602001015181526020018684815181106114e1576114e061271e565b5b60200260200101518152509050600260008581526020019081526020016000206004018190806001815401808255809150506001900390600052602060002090600202016000909190919091506000820151816000019081611543919061264c565b506020820151816001015550507f8da7761d083dc8b6cf8015513c133dc99b31548fcf7b36249437199c03b6e6f2848784815181106115855761158461271e565b5b60200260200101518785815181106115a05761159f61271e565b5b60200260200101516040516115b793929190612e43565b60405180910390a1508080600101915050611498565b505050505050565b60038180516020810182018051848252602083016020850120818352809550505050505060009150905080600001805461160e9061246f565b80601f016020809104026020016040519081016040528092919081815260200182805461163a9061246f565b80156116875780601f1061165c57610100808354040283529160200191611687565b820191906000526020600020905b81548152906001019060200180831161166a57829003601f168201915b5050505050908060010154908060020160009054906101000a900460ff16905083565b6060600060016116b984611778565b01905060008167ffffffffffffffff8111156116d8576116d761196b565b5b6040519080825280601f01601f19166020018201604052801561170a5781602001600182028036833780820191505090505b509050600082602001820190505b60011561176d578080600190039150507f3031323334353637383961626364656600000000000000000000000000000000600a86061a8153600a858161176157611760612e81565b5b04945060008503611718575b819350505050919050565b600080600090507a184f03e93ff9f4daa797ed6e38ed64bf6a1f01000000000000000083106117d6577a184f03e93ff9f4daa797ed6e38ed64bf6a1f01000000000000000083816117cc576117cb612e81565b5b0492506040810190505b6d04ee2d6d415b85acef81000000008310611813576d04ee2d6d415b85acef8100000000838161180957611808612e81565b5b0492506020810190505b662386f26fc10000831061184257662386f26fc10000838161183857611837612e81565b5b0492506010810190505b6305f5e100831061186b576305f5e100838161186157611860612e81565b5b0492506008810190505b612710831061189057612710838161188657611885612e81565b5b0492506004810190505b606483106118b357606483816118a9576118a8612e81565b5b0492506002810190505b600a83106118c2576001810190505b80915050919050565b6000604051905090565b600080fd5b600080fd5b6000819050919050565b6118f2816118df565b81146118fd57600080fd5b50565b60008135905061190f816118e9565b92915050565b6000806040838503121561192c5761192b6118d5565b5b600061193a85828601611900565b925050602061194b85828601611900565b9150509250929050565b600080fd5b6000601f19601f8301169050919050565b7f4e487b7100000000000000000000000000000000000000000000000000000000600052604160045260246000fd5b6119a38261195a565b810181811067ffffffffffffffff821117156119c2576119c161196b565b5b80604052505050565b60006119d56118cb565b90506119e1828261199a565b919050565b600067ffffffffffffffff821115611a0157611a0061196b565b5b602082029050602081019050919050565b600080fd5b600080fd5b600067ffffffffffffffff821115611a3757611a3661196b565b5b611a408261195a565b9050602081019050919050565b82818337600083830152505050565b6000611a6f611a6a84611a1c565b6119cb565b905082815260208101848484011115611a8b57611a8a611a17565b5b611a96848285611a4d565b509392505050565b600082601f830112611ab357611ab2611955565b5b8135611ac3848260208601611a5c565b91505092915050565b6000611adf611ada846119e6565b6119cb565b90508083825260208201905060208402830185811115611b0257611b01611a12565b5b835b81811015611b4957803567ffffffffffffffff811115611b2757611b26611955565b5b808601611b348982611a9e565b85526020850194505050602081019050611b04565b5050509392505050565b600082601f830112611b6857611b67611955565b5b8135611b78848260208601611acc565b91505092915050565b600060208284031215611b9757611b966118d5565b5b600082013567ffffffffffffffff811115611bb557611bb46118da565b5b611bc184828501611b53565b91505092915050565b600080600060608486031215611be357611be26118d5565b5b600084013567ffffffffffffffff811115611c0157611c006118da565b5b611c0d86828701611a9e565b935050602084013567ffffffffffffffff811115611c2e57611c2d6118da565b5b611c3a86828701611a9e565b925050604084013567ffffffffffffffff811115611c5b57611c5a6118da565b5b611c6786828701611a9e565b9150509250925092565b611c7a816118df565b82525050565b6000602082019050611c956000830184611c71565b92915050565b600073ffffffffffffffffffffffffffffffffffffffff82169050919050565b6000611cc682611c9b565b9050919050565b611cd681611cbb565b8114611ce157600080fd5b50565b600081359050611cf381611ccd565b92915050565b60008060408385031215611d1057611d0f6118d5565b5b6000611d1e85828601611ce4565b9250506020611d2f85828601611900565b9150509250929050565b600081519050919050565b600082825260208201905092915050565b60005b83811015611d73578082015181840152602081019050611d58565b60008484015250505050565b6000611d8a82611d39565b611d948185611d44565b9350611da4818560208601611d55565b611dad8161195a565b840191505092915050565b60006020820190508181036000830152611dd28184611d7f565b905092915050565b600060208284031215611df057611def6118d5565b5b6000611dfe84828501611ce4565b91505092915050565b60006060820190508181036000830152611e218186611d7f565b90508181036020830152611e358185611d7f565b90508181036040830152611e498184611d7f565b9050949350505050565b600060208284031215611e6957611e686118d5565b5b6000611e7784828501611900565b91505092915050565b611e8981611cbb565b82525050565b6000608082019050611ea46000830187611c71565b8181036020830152611eb68186611d7f565b9050611ec56040830185611c71565b611ed26060830184611e80565b95945050505050565b6000611ee682611c9b565b9050919050565b611ef681611edb565b82525050565b6000602082019050611f116000830184611eed565b92915050565b600067ffffffffffffffff821115611f3257611f3161196b565b5b602082029050602081019050919050565b6000611f56611f5184611f17565b6119cb565b90508083825260208201905060208402830185811115611f7957611f78611a12565b5b835b81811015611fa25780611f8e8882611900565b845260208401935050602081019050611f7b565b5050509392505050565b600082601f830112611fc157611fc0611955565b5b8135611fd1848260208601611f43565b91505092915050565b600080600060608486031215611ff357611ff26118d5565b5b600084013567ffffffffffffffff811115612011576120106118da565b5b61201d86828701611a9e565b935050602084013567ffffffffffffffff81111561203e5761203d6118da565b5b61204a86828701611b53565b925050604084013567ffffffffffffffff81111561206b5761206a6118da565b5b61207786828701611fac565b9150509250925092565b600060208284031215612097576120966118d5565b5b600082013567ffffffffffffffff8111156120b5576120b46118da565b5b6120c184828501611a9e565b91505092915050565b7f4e487b7100000000000000000000000000000000000000000000000000000000600052602160045260246000fd5b6004811061210a576121096120ca565b5b50565b600081905061211b826120f9565b919050565b600061212b8261210d565b9050919050565b61213b81612120565b82525050565b6000606082019050818103600083015261215b8186611d7f565b905061216a6020830185611c71565b6121776040830184612132565b949350505050565b7f43616e6e6f7420616464206d6f7265207468616e2031302070726f647563742060008201527f6974656d7320617420612074696d652e00000000000000000000000000000000602082015250565b60006121db603083611d44565b91506121e68261217f565b604082019050919050565b6000602082019050818103600083015261220a816121ce565b9050919050565b7f4f6e6c79207468652070726f64756374206d616e75666163747572657220636160008201527f6e206164642070726f64756374206974656d732e000000000000000000000000602082015250565b600061226d603483611d44565b915061227882612211565b604082019050919050565b6000602082019050818103600083015261229c81612260565b9050919050565b7f50726f6475637420646f6573206e6f742065786973742e000000000000000000600082015250565b60006122d9601783611d44565b91506122e4826122a3565b602082019050919050565b60006020820190508181036000830152612308816122cc565b9050919050565b7f4e487b7100000000000000000000000000000000000000000000000000000000600052601160045260246000fd5b6000612349826118df565b9150612354836118df565b925082820190508082111561236c5761236b61230f565b5b92915050565b600081905092915050565b600061238882611d39565b6123928185612372565b93506123a2818560208601611d55565b80840191505092915050565b7f2d00000000000000000000000000000000000000000000000000000000000000600082015250565b60006123e4600183612372565b91506123ef826123ae565b600182019050919050565b6000612406828561237d565b9150612411826123d7565b915061241d828461237d565b91508190509392505050565b6000612435828461237d565b915081905092915050565b7f4e487b7100000000000000000000000000000000000000000000000000000000600052602260045260246000fd5b6000600282049050600182168061248757607f821691505b60208210810361249a57612499612440565b5b50919050565b60008190508160005260206000209050919050565b60006020601f8301049050919050565b600082821b905092915050565b6000600883026125027fffffffffffffffffffffffffffffffffffffffffffffffffffffffffffffffff826124c5565b61250c86836124c5565b95508019841693508086168417925050509392505050565b6000819050919050565b600061254961254461253f846118df565b612524565b6118df565b9050919050565b6000819050919050565b6125638361252e565b61257761256f82612550565b8484546124d2565b825550505050565b600090565b61258c61257f565b61259781848461255a565b505050565b5b818110156125bb576125b0600082612584565b60018101905061259d565b5050565b601f821115612600576125d1816124a0565b6125da846124b5565b810160208510156125e9578190505b6125fd6125f5856124b5565b83018261259c565b50505b505050565b600082821c905092915050565b600061262360001984600802612605565b1980831691505092915050565b600061263c8383612612565b9150826002028217905092915050565b61265582611d39565b67ffffffffffffffff81111561266e5761266d61196b565b5b612678825461246f565b6126838282856125bf565b600060209050601f8311600181146126b657600084156126a4578287015190505b6126ae8582612630565b865550612716565b601f1984166126c4866124a0565b60005b828110156126ec578489015182556001820191506020850194506020810190506126c7565b868310156127095784890151612705601f891682612612565b8355505b6001600288020188555050505b505050505050565b7f4e487b7100000000000000000000000000000000000000000000000000000000600052603260045260246000fd5b600081519050919050565b600082825260208201905092915050565b6000819050602082019050919050565b600082825260208201905092915050565b600061279582611d39565b61279f8185612779565b93506127af818560208601611d55565b6127b88161195a565b840191505092915050565b60006127cf838361278a565b905092915050565b6000602082019050919050565b60006127ef8261274d565b6127f98185612758565b93508360208202850161280b85612769565b8060005b85811015612847578484038952815161282885826127c3565b9450612833836127d7565b925060208a0199505060018101905061280f565b50829750879550505050505092915050565b6000604082019050818103600083015261287381856127e4565b90506128826020830184611c71565b9392505050565b7f50726f64756374206974656d20646f6573206e6f742065786973742e00000000600082015250565b60006128bf601c83611d44565b91506128ca82612889565b602082019050919050565b600060208201905081810360008301526128ee816128b2565b9050919050565b7f4f6e6c79207468652070726f64756374206d616e75666163747572657220636160008201527f6e2073656c6c2070726f64756374206974656d732e0000000000000000000000602082015250565b6000612951603583611d44565b915061295c826128f5565b604082019050919050565b6000602082019050818103600083015261298081612944565b9050919050565b7f50726f64756374204974656d2063616e6e6f7420626520736f6c642e00000000600082015250565b60006129bd601c83611d44565b91506129c882612987565b602082019050919050565b600060208201905081810360008301526129ec816129b0565b9050919050565b60006040820190508181036000830152612a0d81856127e4565b9050612a1c6020830184612132565b9392505050565b7f4d616e756661637475726572206e616d652063616e6e6f7420626520656d707460008201527f7900000000000000000000000000000000000000000000000000000000000000602082015250565b6000612a7f602183611d44565b9150612a8a82612a23565b604082019050919050565b60006020820190508181036000830152612aae81612a72565b9050919050565b7f4d616e75666163747572657220616c7265616479207265676973746572656400600082015250565b6000612aeb601f83611d44565b9150612af682612ab5565b602082019050919050565b60006020820190508181036000830152612b1a81612ade565b9050919050565b6000608082019050612b366000830187611e80565b8181036020830152612b488186611d7f565b90508181036040830152612b5c8185611d7f565b90508181036060830152612b708184611d7f565b905095945050505050565b7f50726f64756374204974656d2063616e6e6f742062652072657475726e65642e600082015250565b6000612bb1602083611d44565b9150612bbc82612b7b565b602082019050919050565b60006020820190508181036000830152612be081612ba4565b9050919050565b7f50726f64756374204974656d2063616e6e6f742062652072656379636c65642e600082015250565b6000612c1d602083611d44565b9150612c2882612be7565b602082019050919050565b60006020820190508181036000830152612c4c81612c10565b9050919050565b7f50726f64756374206e616d652063616e6e6f7420626520656d70747900000000600082015250565b6000612c89601c83611d44565b9150612c9482612c53565b602082019050919050565b60006020820190508181036000830152612cb881612c7c565b9050919050565b7f546f786963206974656d73206172726179206c656e677468206d69736d61746360008201527f6800000000000000000000000000000000000000000000000000000000000000602082015250565b6000612d1b602183611d44565b9150612d2682612cbf565b604082019050919050565b60006020820190508181036000830152612d4a81612d0e565b9050919050565b7f4d616e756661637475726572206e6f7420726567697374657265640000000000600082015250565b6000612d87601b83611d44565b9150612d9282612d51565b602082019050919050565b60006020820190508181036000830152612db681612d7a565b9050919050565b6000612dc8826118df565b91507fffffffffffffffffffffffffffffffffffffffffffffffffffffffffffffffff8203612dfa57612df961230f565b5b600182019050919050565b6000606082019050612e1a6000830186611c71565b8181036020830152612e2c8185611d7f565b9050612e3b6040830184611e80565b949350505050565b6000606082019050612e586000830186611c71565b8181036020830152612e6a8185611d7f565b9050612e796040830184611c71565b949350505050565b7f4e487b7100000000000000000000000000000000000000000000000000000000600052601260045260246000fdfea26469706673582212204a6df389745af8fe4a04782dc60d3e132ebf4de1194847f826f1a87f39bcf8b764736f6c63430008180033",
  "linkReferences": {},
  "deployedLinkReferences": {}
}