{
  "_format": "hh-sol-artifact-1",
  "contractName": "SimpleCounter",
  "sourceName": "contracts/SimpleCounter.sol",
  "abi": [
    {
      "inputs": [
        {
          "internalType": "uint256",
          "name": "initialNumber",
          "type": "uint256"
        }
      ],
      "stateMutability": "nonpayable",
      "type": "constructor"
    },
    {
      "anonymous": false,
      "inputs": [
        {
          "indexed": false,
          "internalType": "uint256",
          "name": "updatedNumber",
          "type": "uint256"
        }
      ],
      "name": "NumberDecremented",
      "type": "event"
    },
    {
      "anonymous": false,
      "inputs": [
        {
          "indexed": false,
          "internalType": "uint256",
          "name": "updatedNumber",
          "type": "uint256"
        }
      ],
      "name": "NumberIncremented",
      "type": "event"
    },
    {
      "inputs": [],
      "name": "decrement",
      "outputs": [],
      "stateMutability": "nonpayable",
      "type": "function"
    },
    {
      "inputs": [],
      "name": "increment",
      "outputs": [],
      "stateMutability": "nonpayable",
      "type": "function"
    },
    {
      "inputs": [],
      "name": "number",
      "outputs": [
        {
          "internalType": "uint256",
          "name": "",
          "type": "uint256"
        }
      ],
      "stateMutability": "view",
      "type": "function"
    }
  ],
  "bytecode": "0x608060405234801561001057600080fd5b506040516102dd3803806102dd8339818101604052810190610032919061007a565b80600081905550506100a7565b600080fd5b6000819050919050565b61005781610044565b811461006257600080fd5b50565b6000815190506100748161004e565b92915050565b6000602082840312156100905761008f61003f565b5b600061009e84828501610065565b91505092915050565b610227806100b66000396000f3fe608060405234801561001057600080fd5b50600436106100415760003560e01c80632baeceb7146100465780638381f58a14610050578063d09de08a1461006e575b600080fd5b61004e610078565b005b6100586100cc565b604051610065919061013f565b60405180910390f35b6100766100d2565b005b600160008082825461008a9190610189565b925050819055507fbad136607945e6d9a17279e7185ec9db741dda16b98375b35aff04d51f96db8f6000546040516100c2919061013f565b60405180910390a1565b60005481565b60016000808282546100e491906101bd565b925050819055507fbad136607945e6d9a17279e7185ec9db741dda16b98375b35aff04d51f96db8f60005460405161011c919061013f565b60405180910390a1565b6000819050919050565b61013981610126565b82525050565b60006020820190506101546000830184610130565b92915050565b7f4e487b7100000000000000000000000000000000000000000000000000000000600052601160045260246000fd5b600061019482610126565b915061019f83610126565b92508282039050818111156101b7576101b661015a565b5b92915050565b60006101c882610126565b91506101d383610126565b92508282019050808211156101eb576101ea61015a565b5b9291505056fea2646970667358221220ae1d03d091670b5fda67553d87d5c2e2e6f9987630963bd16c9263bfe83bc31464736f6c63430008180033",
  "linkReferences": {},
  "deployedLinkReferences": {}
}